{"abi":[{"type":"constructor","inputs":[{"name":"_gameToken","type":"address","internalType":"address"}],"stateMutability":"nonpayable"},{"type":"function","name":"EXCHANGE_RATE","inputs":[],"outputs":[{"name":"","type":"uint256","internalType":"uint256"}],"stateMutability":"view"},{"type":"function","name":"MIN_PURCHASE_MNT","inputs":[],"outputs":[{"name":"","type":"uint256","internalType":"uint256"}],"stateMutability":"view"},{"type":"function","name":"buyTokens","inputs":[],"outputs":[],"stateMutability":"payable"},{"type":"function","name":"depositTokens","inputs":[{"name":"amount","type":"uint256","internalType":"uint256"}],"outputs":[],"stateMutability":"nonpayable"},{"type":"function","name":"gameToken","inputs":[],"outputs":[{"name":"","type":"address","internalType":"contract GameToken"}],"stateMutability":"view"},{"type":"function","name":"getMntAmount","inputs":[{"name":"tycoonAmount","type":"uint256","internalType":"uint256"}],"outputs":[{"name":"","type":"uint256","internalType":"uint256"}],"stateMutability":"pure"},{"type":"function","name":"getTokenBalance","inputs":[],"outputs":[{"name":"","type":"uint256","internalType":"uint256"}],"stateMutability":"view"},{"type":"function","name":"getTycoonAmount","inputs":[{"name":"mntAmount","type":"uint256","internalType":"uint256"}],"outputs":[{"name":"","type":"uint256","internalType":"uint256"}],"stateMutability":"pure"},{"type":"function","name":"owner","inputs":[],"outputs":[{"name":"","type":"address","internalType":"address"}],"stateMutability":"view"},{"type":"function","name":"renounceOwnership","inputs":[],"outputs":[],"stateMutability":"nonpayable"},{"type":"function","name":"transferOwnership","inputs":[{"name":"newOwner","type":"address","internalType":"address"}],"outputs":[],"stateMutability":"nonpayable"},{"type":"function","name":"withdrawMNT","inputs":[],"outputs":[],"stateMutability":"nonpayable"},{"type":"function","name":"withdrawTokens","inputs":[{"name":"amount","type":"uint256","internalType":"uint256"}],"outputs":[],"stateMutability":"nonpayable"},{"type":"event","name":"OwnershipTransferred","inputs":[{"name":"previousOwner","type":"address","indexed":true,"internalType":"address"},{"name":"newOwner","type":"address","indexed":true,"internalType":"address"}],"anonymous":false},{"type":"event","name":"TokensPurchased","inputs":[{"name":"buyer","type":"address","indexed":true,"internalType":"address"},{"name":"mntAmount","type":"uint256","indexed":false,"internalType":"uint256"},{"name":"tycoonAmount","type":"uint256","indexed":false,"internalType":"uint256"}],"anonymous":false},{"type":"event","name":"TokensWithdrawn","inputs":[{"name":"to","type":"address","indexed":true,"internalType":"address"},{"name":"amount","type":"uint256","indexed":false,"internalType":"uint256"}],"anonymous":false},{"type":"error","name":"OwnableInvalidOwner","inputs":[{"name":"owner","type":"address","internalType":"address"}]},{"type":"error","name":"OwnableUnauthorizedAccount","inputs":[{"name":"account","type":"address","internalType":"address"}]},{"type":"error","name":"ReentrancyGuardReentrantCall","inputs":[]}],"bytecode":{"object":"0x608060405234801561000f575f80fd5b50604051610a9e380380610a9e83398101604081905261002e916100f5565b338061005357604051631e4fbdf760e01b81525f600482015260240160405180910390fd5b61005c816100a6565b5060017f9b779b17422d0df92223018b32b4d1fa46e071723d6817e2486d003becc55f0055600180546001600160a01b0319166001600160a01b0392909216919091179055610122565b5f80546001600160a01b038381166001600160a01b0319831681178455604051919092169283917f8be0079c531659141344cd1fd0a4f28419497f9722a3daafe3b4186f6b6457e09190a35050565b5f60208284031215610105575f80fd5b81516001600160a01b038116811461011b575f80fd5b9392505050565b61096f8061012f5f395ff3fe6080604052600436106100bf575f3560e01c80639a5ed7381161007c578063d0febe4c11610057578063d0febe4c146101cf578063d87810d6146101d7578063dd49756e146101f6578063f2fde38b14610215575f80fd5b80639a5ed73814610177578063c3dfdae614610191578063d0dea103146101b0575f80fd5b806314a8bd0d146100c3578063315a095d146100ea5780636e5c09561461010b578063715018a61461011f57806382b2e257146101335780638da5cb5b14610147575b5f80fd5b3480156100ce575f80fd5b506100d7606481565b6040519081526020015b60405180910390f35b3480156100f5575f80fd5b5061010961010436600461084e565b610234565b005b348015610116575f80fd5b50610109610341565b34801561012a575f80fd5b506101096103c6565b34801561013e575f80fd5b506100d76103d9565b348015610152575f80fd5b505f546001600160a01b03165b6040516001600160a01b0390911681526020016100e1565b348015610182575f80fd5b506100d766038d7ea4c6800081565b34801561019c575f80fd5b5060015461015f906001600160a01b031681565b3480156101bb575f80fd5b506100d76101ca36600461084e565b610448565b61010961045a565b3480156101e2575f80fd5b506100d76101f136600461084e565b610686565b348015610201575f80fd5b5061010961021036600461084e565b610692565b348015610220575f80fd5b5061010961022f366004610865565b610729565b61023c610763565b6001546001600160a01b031663a9059cbb61025e5f546001600160a01b031690565b6040516001600160e01b031960e084901b1681526001600160a01b039091166004820152602481018490526044016020604051808303815f875af11580156102a8573d5f803e3d5ffd5b505050506040513d601f19601f820116820180604052508101906102cc9190610892565b6102f15760405162461bcd60e51b81526004016102e8906108b1565b60405180910390fd5b5f546001600160a01b03166001600160a01b03167f6352c5382c4a4578e712449ca65e83cdb392d045dfcf1cad9615189db2da244b8260405161033691815260200190565b60405180910390a250565b610349610763565b478061038c5760405162461bcd60e51b81526020600482015260126024820152714e6f204d4e5420746f20776974686472617760701b60448201526064016102e8565b5f80546040516001600160a01b039091169183156108fc02918491818181858888f193505050501580156103c2573d5f803e3d5ffd5b5050565b6103ce610763565b6103d75f61078f565b565b6001546040516370a0823160e01b81523060048201525f916001600160a01b0316906370a0823190602401602060405180830381865afa15801561041f573d5f803e3d5ffd5b505050506040513d601f19601f8201168201806040525081019061044391906108e0565b905090565b5f6104546064836108f7565b92915050565b6104626107de565b66038d7ea4c680003410156104b95760405162461bcd60e51b815260206004820152601d60248201527f4d696e696d756d20707572636861736520697320302e303031204d4e5400000060448201526064016102e8565b5f6104c5606434610916565b6001546040516370a0823160e01b81523060048201529192505f916001600160a01b03909116906370a0823190602401602060405180830381865afa158015610510573d5f803e3d5ffd5b505050506040513d601f19601f8201168201806040525081019061053491906108e0565b9050818110156105925760405162461bcd60e51b8152602060048201526024808201527f496e73756666696369656e7420746f6b656e7320696e207377617020636f6e746044820152631c9858dd60e21b60648201526084016102e8565b60015460405163a9059cbb60e01b8152336004820152602481018490526001600160a01b039091169063a9059cbb906044016020604051808303815f875af11580156105e0573d5f803e3d5ffd5b505050506040513d601f19601f820116820180604052508101906106049190610892565b6106205760405162461bcd60e51b81526004016102e8906108b1565b604080513481526020810184905233917f8fafebcaf9d154343dad25669bfa277f4fbacd7ac6b0c4fed522580e040a0f33910160405180910390a250506103d760017f9b779b17422d0df92223018b32b4d1fa46e071723d6817e2486d003becc55f0055565b5f610454606483610916565b6001546040516323b872dd60e01b8152336004820152306024820152604481018390526001600160a01b03909116906323b872dd906064016020604051808303815f875af11580156106e6573d5f803e3d5ffd5b505050506040513d601f19601f8201168201806040525081019061070a9190610892565b6107265760405162461bcd60e51b81526004016102e8906108b1565b50565b610731610763565b6001600160a01b03811661075a57604051631e4fbdf760e01b81525f60048201526024016102e8565b6107268161078f565b5f546001600160a01b031633146103d75760405163118cdaa760e01b81523360048201526024016102e8565b5f80546001600160a01b038381166001600160a01b0319831681178455604051919092169283917f8be0079c531659141344cd1fd0a4f28419497f9722a3daafe3b4186f6b6457e09190a35050565b6107e661080c565b60027f9b779b17422d0df92223018b32b4d1fa46e071723d6817e2486d003becc55f0055565b7f9b779b17422d0df92223018b32b4d1fa46e071723d6817e2486d003becc55f00546002036103d757604051633ee5aeb560e01b815260040160405180910390fd5b5f6020828403121561085e575f80fd5b5035919050565b5f60208284031215610875575f80fd5b81356001600160a01b038116811461088b575f80fd5b9392505050565b5f602082840312156108a2575f80fd5b8151801515811461088b575f80fd5b602080825260159082015274151bdad95b881d1c985b9cd9995c8819985a5b1959605a1b604082015260600190565b5f602082840312156108f0575f80fd5b5051919050565b5f8261091157634e487b7160e01b5f52601260045260245ffd5b500490565b808202811582820484141761045457634e487b7160e01b5f52601160045260245ffdfea264697066735822122022ebdbc7e4f730ba17e7e729a663fba52e6e5a0dd780a57b2af35c301da05b6f64736f6c63430008180033","linkReferences":{}},"methodIdentifiers":{"EXCHANGE_RATE()":"14a8bd0d","MIN_PURCHASE_MNT()":"9a5ed738","buyTokens()":"d0febe4c","depositTokens(uint256)":"dd49756e","gameToken()":"c3dfdae6","getMntAmount(uint256)":"d0dea103","getTokenBalance()":"82b2e257","getTycoonAmount(uint256)":"d87810d6","owner()":"8da5cb5b","renounceOwnership()":"715018a6","transferOwnership(address)":"f2fde38b","withdrawMNT()":"6e5c0956","withdrawTokens(uint256)":"315a095d"},"id":54}