{"abi":[{"type":"constructor","inputs":[{"name":"_propertyNFT","type":"address","internalType":"address"},{"name":"_gameToken","type":"address","internalType":"address"}],"stateMutability":"nonpayable"},{"type":"function","name":"auctionFee","inputs":[],"outputs":[{"name":"","type":"uint256","internalType":"uint256"}],"stateMutability":"view"},{"type":"function","name":"auctions","inputs":[{"name":"","type":"uint256","internalType":"uint256"}],"outputs":[{"name":"propertyId","type":"uint256","internalType":"uint256"},{"name":"seller","type":"address","internalType":"address"},{"name":"startingPrice","type":"uint256","internalType":"uint256"},{"name":"highestBid","type":"uint256","internalType":"uint256"},{"name":"highestBidder","type":"address","internalType":"address"},{"name":"endTime","type":"uint256","internalType":"uint256"},{"name":"isActive","type":"bool","internalType":"bool"}],"stateMutability":"view"},{"type":"function","name":"batchListProperties","inputs":[{"name":"propertyIds","type":"uint256[]","internalType":"uint256[]"},{"name":"prices","type":"uint256[]","internalType":"uint256[]"}],"outputs":[],"stateMutability":"nonpayable"},{"type":"function","name":"buyProperty","inputs":[{"name":"propertyId","type":"uint256","internalType":"uint256"}],"outputs":[],"stateMutability":"nonpayable"},{"type":"function","name":"cancelListing","inputs":[{"name":"propertyId","type":"uint256","internalType":"uint256"}],"outputs":[],"stateMutability":"nonpayable"},{"type":"function","name":"createAuction","inputs":[{"name":"propertyId","type":"uint256","internalType":"uint256"},{"name":"startingPrice","type":"uint256","internalType":"uint256"},{"name":"duration","type":"uint256","internalType":"uint256"}],"outputs":[],"stateMutability":"nonpayable"},{"type":"function","name":"endAuction","inputs":[{"name":"propertyId","type":"uint256","internalType":"uint256"}],"outputs":[],"stateMutability":"nonpayable"},{"type":"function","name":"gameToken","inputs":[],"outputs":[{"name":"","type":"address","internalType":"contract GameToken"}],"stateMutability":"view"},{"type":"function","name":"getActiveListings","inputs":[],"outputs":[{"name":"propertyIds","type":"uint256[]","internalType":"uint256[]"},{"name":"sellers","type":"address[]","internalType":"address[]"},{"name":"prices","type":"uint256[]","internalType":"uint256[]"}],"stateMutability":"view"},{"type":"function","name":"getActiveListingsCount","inputs":[],"outputs":[{"name":"","type":"uint256","internalType":"uint256"}],"stateMutability":"view"},{"type":"function","name":"listProperty","inputs":[{"name":"propertyId","type":"uint256","internalType":"uint256"},{"name":"price","type":"uint256","internalType":"uint256"}],"outputs":[],"stateMutability":"nonpayable"},{"type":"function","name":"listingFee","inputs":[],"outputs":[{"name":"","type":"uint256","internalType":"uint256"}],"stateMutability":"view"},{"type":"function","name":"listings","inputs":[{"name":"","type":"uint256","internalType":"uint256"}],"outputs":[{"name":"propertyId","type":"uint256","internalType":"uint256"},{"name":"seller","type":"address","internalType":"address"},{"name":"price","type":"uint256","internalType":"uint256"},{"name":"isActive","type":"bool","internalType":"bool"},{"name":"createdAt","type":"uint256","internalType":"uint256"}],"stateMutability":"view"},{"type":"function","name":"owner","inputs":[],"outputs":[{"name":"","type":"address","internalType":"address"}],"stateMutability":"view"},{"type":"function","name":"placeBid","inputs":[{"name":"propertyId","type":"uint256","internalType":"uint256"},{"name":"bidAmount","type":"uint256","internalType":"uint256"}],"outputs":[],"stateMutability":"nonpayable"},{"type":"function","name":"propertyNFT","inputs":[],"outputs":[{"name":"","type":"address","internalType":"contract PropertyNFT"}],"stateMutability":"view"},{"type":"function","name":"renounceOwnership","inputs":[],"outputs":[],"stateMutability":"nonpayable"},{"type":"function","name":"transferOwnership","inputs":[{"name":"newOwner","type":"address","internalType":"address"}],"outputs":[],"stateMutability":"nonpayable"},{"type":"event","name":"AuctionCreated","inputs":[{"name":"propertyId","type":"uint256","indexed":true,"internalType":"uint256"},{"name":"seller","type":"address","indexed":true,"internalType":"address"},{"name":"startingPrice","type":"uint256","indexed":false,"internalType":"uint256"},{"name":"endTime","type":"uint256","indexed":false,"internalType":"uint256"}],"anonymous":false},{"type":"event","name":"AuctionEnded","inputs":[{"name":"propertyId","type":"uint256","indexed":true,"internalType":"uint256"},{"name":"winner","type":"address","indexed":true,"internalType":"address"},{"name":"finalPrice","type":"uint256","indexed":false,"internalType":"uint256"}],"anonymous":false},{"type":"event","name":"BidPlaced","inputs":[{"name":"propertyId","type":"uint256","indexed":true,"internalType":"uint256"},{"name":"bidder","type":"address","indexed":true,"internalType":"address"},{"name":"amount","type":"uint256","indexed":false,"internalType":"uint256"}],"anonymous":false},{"type":"event","name":"ListingCancelled","inputs":[{"name":"propertyId","type":"uint256","indexed":true,"internalType":"uint256"}],"anonymous":false},{"type":"event","name":"OwnershipTransferred","inputs":[{"name":"previousOwner","type":"address","indexed":true,"internalType":"address"},{"name":"newOwner","type":"address","indexed":true,"internalType":"address"}],"anonymous":false},{"type":"event","name":"PropertyListed","inputs":[{"name":"propertyId","type":"uint256","indexed":true,"internalType":"uint256"},{"name":"seller","type":"address","indexed":true,"internalType":"address"},{"name":"price","type":"uint256","indexed":false,"internalType":"uint256"}],"anonymous":false},{"type":"event","name":"PropertySold","inputs":[{"name":"propertyId","type":"uint256","indexed":true,"internalType":"uint256"},{"name":"seller","type":"address","indexed":true,"internalType":"address"},{"name":"buyer","type":"address","indexed":true,"internalType":"address"},{"name":"price","type":"uint256","indexed":false,"internalType":"uint256"}],"anonymous":false},{"type":"error","name":"OwnableInvalidOwner","inputs":[{"name":"owner","type":"address","internalType":"address"}]},{"type":"error","name":"OwnableUnauthorizedAccount","inputs":[{"name":"account","type":"address","internalType":"address"}]},{"type":"error","name":"ReentrancyGuardReentrantCall","inputs":[]}],"bytecode":{"object":"0x6080604052601960055560196006553480156200001a575f80fd5b5060405162001cbc38038062001cbc8339810160408190526200003d9162000130565b60017f9b779b17422d0df92223018b32b4d1fa46e071723d6817e2486d003becc55f005533806200008757604051631e4fbdf760e01b81525f600482015260240160405180910390fd5b6200009281620000c5565b50600180546001600160a01b039384166001600160a01b0319918216179091556002805492909316911617905562000166565b5f80546001600160a01b038381166001600160a01b0319831681178455604051919092169283917f8be0079c531659141344cd1fd0a4f28419497f9722a3daafe3b4186f6b6457e09190a35050565b80516001600160a01b03811681146200012b575f80fd5b919050565b5f806040838503121562000142575f80fd5b6200014d8362000114565b91506200015d6020840162000114565b90509250929050565b611b4880620001745f395ff3fe608060405234801561000f575f80fd5b5060043610610111575f3560e01c80637b55927c1161009e578063c3999a321161006e578063c3999a321461029c578063c3dfdae6146102af578063cda4beef146102c2578063de74e57b146102d5578063f2fde38b14610354575f80fd5b80637b55927c1461025a57806387c35bc0146102625780638da5cb5b14610279578063b9a2de3a14610289575f80fd5b8063571a26a0116100e4578063571a26a01461018457806357c90de5146102235780636a1b7ecc146102365780636fa830a61461023f578063715018a614610252575f80fd5b806314525b6b14610115578063305a67a81461013157806337f76838146101465780634eda529b14610171575b5f80fd5b61011e60065481565b6040519081526020015b60405180910390f35b61014461013f366004611741565b610367565b005b600154610159906001600160a01b031681565b6040516001600160a01b039091168152602001610128565b61014461017f366004611758565b61049e565b6101df610192366004611741565b600460208190525f9182526040909120805460018201546002830154600384015494840154600585015460069095015493956001600160a01b039384169592949093909116919060ff1687565b604080519788526001600160a01b0396871660208901528701949094526060860192909252909216608084015260a0830191909152151560c082015260e001610128565b610144610231366004611758565b6106fd565b61011e60055481565b61014461024d366004611741565b610956565b610144610bb6565b61011e610bc9565b61026a610c9e565b604051610128939291906117b2565b5f546001600160a01b0316610159565b610144610297366004611741565b610f2f565b6101446102aa36600461186b565b611267565b600254610159906001600160a01b031681565b6101446102d03660046118d2565b611352565b6103226102e3366004611741565b600360208190525f91825260409091208054600182015460028301549383015460049093015491936001600160a01b0390911692909160ff9091169085565b604080519586526001600160a01b0390941660208601529284019190915215156060830152608082015260a001610128565b61014461036236600461190f565b611642565b5f81815260036020526040902060018101546001600160a01b031633146103c25760405162461bcd60e51b815260206004820152600a6024820152692737ba1039b2b63632b960b11b60448201526064015b60405180910390fd5b600381015460ff166104035760405162461bcd60e51b815260206004820152600a6024820152694e6f742061637469766560b01b60448201526064016103b9565b6001546040516323b872dd60e01b81526001600160a01b03909116906323b872dd9061043790309033908790600401611931565b5f604051808303815f87803b15801561044e575f80fd5b505af1158015610460573d5f803e3d5ffd5b50505060038201805460ff191690555060405182907f411aee90354c51b1b04cd563fcab2617142a9d50da19232d888547c8a1b7fd8a905f90a25050565b6001546040516331a9108f60e11b81526004810184905233916001600160a01b031690636352211e90602401602060405180830381865afa1580156104e5573d5f803e3d5ffd5b505050506040513d601f19601f820116820180604052508101906105099190611955565b6001600160a01b03161461054b5760405162461bcd60e51b81526020600482015260096024820152682737ba1037bbb732b960b91b60448201526064016103b9565b5f811161058a5760405162461bcd60e51b815260206004820152600d60248201526c496e76616c696420707269636560981b60448201526064016103b9565b5f828152600360208190526040909120015460ff16156105dd5760405162461bcd60e51b815260206004820152600e60248201526d105b1c9958591e481b1a5cdd195960921b60448201526064016103b9565b6001546040516323b872dd60e01b81526001600160a01b03909116906323b872dd9061061190339030908790600401611931565b5f604051808303815f87803b158015610628575f80fd5b505af115801561063a573d5f803e3d5ffd5b50506040805160a08101825285815233602080830182815283850188815260016060860181815242608088019081525f8d81526003808852908a902098518955945192880180546001600160a01b0319166001600160a01b0390941693909317909255915160028701559051918501805460ff1916921515929092179091555160049093019290925591518581529193508592507f23fb658c1698b92f5fe511a079c17ecf7965cbc3f1b873328c67e2c3c0820f1f910160405180910390a35050565b61070561167c565b5f828152600460205260409020600681015460ff1661075b5760405162461bcd60e51b815260206004820152601260248201527141756374696f6e206e6f742061637469766560701b60448201526064016103b9565b8060050154421061079e5760405162461bcd60e51b815260206004820152600d60248201526c105d58dd1a5bdb88195b991959609a1b60448201526064016103b9565b806003015482116107df5760405162461bcd60e51b815260206004820152600b60248201526a42696420746f6f206c6f7760a81b60448201526064016103b9565b60048101546001600160a01b03161561087357600254600482810154600384015460405163a9059cbb60e01b81526001600160a01b039283169381019390935260248301529091169063a9059cbb906044016020604051808303815f875af115801561084d573d5f803e3d5ffd5b505050506040513d601f19601f820116820180604052508101906108719190611970565b505b6002546040516323b872dd60e01b81526001600160a01b03909116906323b872dd906108a790339030908790600401611931565b6020604051808303815f875af11580156108c3573d5f803e3d5ffd5b505050506040513d601f19601f820116820180604052508101906108e79190611970565b50600381018290556004810180546001600160a01b0319163390811790915560405183815284907f0e54eff26401bf69b81b26f60bd85ef47f5d85275c1d268d84f68d6897431c479060200160405180910390a35061095260015f80516020611af383398151915255565b5050565b61095e61167c565b5f8181526003602081905260409091209081015460ff166109ae5760405162461bcd60e51b815260206004820152600a602482015269139bdd081b1a5cdd195960b21b60448201526064016103b9565b5f6103e860055483600201546109c491906119a3565b6109ce91906119c0565b90505f8183600201546109e191906119df565b60025460018501546040516323b872dd60e01b81529293506001600160a01b03918216926323b872dd92610a1e9233929116908690600401611931565b6020604051808303815f875af1158015610a3a573d5f803e3d5ffd5b505050506040513d601f19601f82011682018060405250810190610a5e9190611970565b506002546001600160a01b03166323b872dd33610a825f546001600160a01b031690565b856040518463ffffffff1660e01b8152600401610aa193929190611931565b6020604051808303815f875af1158015610abd573d5f803e3d5ffd5b505050506040513d601f19601f82011682018060405250810190610ae19190611970565b506001546040516323b872dd60e01b81526001600160a01b03909116906323b872dd90610b1690309033908990600401611931565b5f604051808303815f87803b158015610b2d575f80fd5b505af1158015610b3f573d5f803e3d5ffd5b5050505060038301805460ff191690556001830154600284015460405190815233916001600160a01b03169086907fddd64180d9701c7ede08673ac8106484ff983a472929330d4fbde4e35d65cb069060200160405180910390a4505050610bb360015f80516020611af383398151915255565b50565b610bbe611697565b610bc75f6116c3565b565b60015460405163cb64489760e01b81523060048201525f9182916001600160a01b039091169063cb644897906024015f60405180830381865afa158015610c12573d5f803e3d5ffd5b505050506040513d5f823e601f3d908101601f19168201604052610c399190810190611a06565b90505f805b8251811015610c975760035f848381518110610c5c57610c5c611ab3565b60209081029190910181015182528101919091526040015f206003015460ff1615610c8f5781610c8b81611ac7565b9250505b600101610c3e565b5092915050565b60015460405163cb64489760e01b8152306004820152606091829182915f916001600160a01b039091169063cb644897906024015f60405180830381865afa158015610cec573d5f803e3d5ffd5b505050506040513d5f823e601f3d908101601f19168201604052610d139190810190611a06565b90505f805b8251811015610d715760035f848381518110610d3657610d36611ab3565b60209081029190910181015182528101919091526040015f206003015460ff1615610d695781610d6581611ac7565b9250505b600101610d18565b508067ffffffffffffffff811115610d8b57610d8b6119f2565b604051908082528060200260200182016040528015610db4578160200160208202803683370190505b5094508067ffffffffffffffff811115610dd057610dd06119f2565b604051908082528060200260200182016040528015610df9578160200160208202803683370190505b5093508067ffffffffffffffff811115610e1557610e156119f2565b604051908082528060200260200182016040528015610e3e578160200160208202803683370190505b5092505f805b8351811015610f26575f848281518110610e6057610e60611ab3565b6020908102919091018101515f818152600392839052604090209182015490925060ff1615610f1c5781898581518110610e9c57610e9c611ab3565b6020908102919091010152600181015488516001600160a01b0390911690899086908110610ecc57610ecc611ab3565b60200260200101906001600160a01b031690816001600160a01b0316815250508060020154878581518110610f0357610f03611ab3565b602090810291909101015283610f1881611ac7565b9450505b5050600101610e44565b50505050909192565b610f3761167c565b5f818152600460205260409020600681015460ff16610f8d5760405162461bcd60e51b815260206004820152601260248201527141756374696f6e206e6f742061637469766560701b60448201526064016103b9565b8060050154421015610fd35760405162461bcd60e51b815260206004820152600f60248201526e41756374696f6e206f6e676f696e6760881b60448201526064016103b9565b60048101546001600160a01b0316156111dd575f6103e86006548360030154610ffc91906119a3565b61100691906119c0565b90505f81836003015461101991906119df565b600254600185015460405163a9059cbb60e01b81526001600160a01b03918216600482015260248101849052929350169063a9059cbb906044016020604051808303815f875af115801561106f573d5f803e3d5ffd5b505050506040513d601f19601f820116820180604052508101906110939190611970565b506002546001600160a01b031663a9059cbb6110b65f546001600160a01b031690565b6040516001600160e01b031960e084901b1681526001600160a01b039091166004820152602481018590526044016020604051808303815f875af1158015611100573d5f803e3d5ffd5b505050506040513d601f19601f820116820180604052508101906111249190611970565b506001546004808501546040516323b872dd60e01b81526001600160a01b03938416936323b872dd9361115e9330939216918a9101611931565b5f604051808303815f87803b158015611175575f80fd5b505af1158015611187573d5f803e3d5ffd5b50505050600483015460038401546040519081526001600160a01b039091169085907fd2aa34a4fdbbc6dff6a3e56f46e0f3ae2a31d7785ff3487aa5c95c642acea5019060200160405180910390a35050611246565b60018054908201546040516323b872dd60e01b81526001600160a01b03928316926323b872dd92611218923092909116908790600401611931565b5f604051808303815f87803b15801561122f575f80fd5b505af1158015611241573d5f803e3d5ffd5b505050505b600601805460ff19169055610bb360015f80516020611af383398151915255565b8281146112ae5760405162461bcd60e51b8152602060048201526015602482015274082e4e4c2f240d8cadccee8d040dad2e6dac2e8c6d605b1b60448201526064016103b9565b82158015906112be575060148311155b6112ff5760405162461bcd60e51b8152602060048201526012602482015271496e76616c69642062617463682073697a6560701b60448201526064016103b9565b5f5b8381101561134b5761134385858381811061131e5761131e611ab3565b9050602002013584848481811061133757611337611ab3565b9050602002013561049e565b600101611301565b5050505050565b6001546040516331a9108f60e11b81526004810185905233916001600160a01b031690636352211e90602401602060405180830381865afa158015611399573d5f803e3d5ffd5b505050506040513d601f19601f820116820180604052508101906113bd9190611955565b6001600160a01b0316146113ff5760405162461bcd60e51b81526020600482015260096024820152682737ba1037bbb732b960b91b60448201526064016103b9565b5f821161143e5760405162461bcd60e51b815260206004820152600d60248201526c496e76616c696420707269636560981b60448201526064016103b9565b5f81116114805760405162461bcd60e51b815260206004820152601060248201526f24b73b30b634b210323ab930ba34b7b760811b60448201526064016103b9565b5f8381526004602052604090206006015460ff16156114d25760405162461bcd60e51b815260206004820152600e60248201526d41756374696f6e2065786973747360901b60448201526064016103b9565b6001546040516323b872dd60e01b81526001600160a01b03909116906323b872dd9061150690339030908890600401611931565b5f604051808303815f87803b15801561151d575f80fd5b505af115801561152f573d5f803e3d5ffd5b50506040805160e081018252868152336020820152908101859052606081018590525f608082015291505060a081016115688342611adf565b8152600160209182018190525f8681526004808452604091829020855181559385015192840180546001600160a01b039485166001600160a01b031991821617909155918501516002850155606085015160038501556080850151908401805491909316911617905560a0820151600582015560c0909101516006909101805491151560ff1990921691909117905533837fc9050d42180a61cb0d9ebb8ad118b62fe6eab12cf12ff752c4a0cc7da9ddf627846116258542611adf565b6040805192835260208301919091520160405180910390a3505050565b61164a611697565b6001600160a01b03811661167357604051631e4fbdf760e01b81525f60048201526024016103b9565b610bb3816116c3565b611684611712565b60025f80516020611af383398151915255565b5f546001600160a01b03163314610bc75760405163118cdaa760e01b81523360048201526024016103b9565b5f80546001600160a01b038381166001600160a01b0319831681178455604051919092169283917f8be0079c531659141344cd1fd0a4f28419497f9722a3daafe3b4186f6b6457e09190a35050565b5f80516020611af383398151915254600203610bc757604051633ee5aeb560e01b815260040160405180910390fd5b5f60208284031215611751575f80fd5b5035919050565b5f8060408385031215611769575f80fd5b50508035926020909101359150565b5f815180845260208085019450602084015f5b838110156117a75781518752958201959082019060010161178b565b509495945050505050565b606081525f6117c46060830186611778565b8281036020848101919091528551808352868201928201905f5b818110156118035784516001600160a01b0316835293830193918301916001016117de565b505084810360408601526118178187611778565b98975050505050505050565b5f8083601f840112611833575f80fd5b50813567ffffffffffffffff81111561184a575f80fd5b6020830191508360208260051b8501011115611864575f80fd5b9250929050565b5f805f806040858703121561187e575f80fd5b843567ffffffffffffffff80821115611895575f80fd5b6118a188838901611823565b909650945060208701359150808211156118b9575f80fd5b506118c687828801611823565b95989497509550505050565b5f805f606084860312156118e4575f80fd5b505081359360208301359350604090920135919050565b6001600160a01b0381168114610bb3575f80fd5b5f6020828403121561191f575f80fd5b813561192a816118fb565b9392505050565b6001600160a01b039384168152919092166020820152604081019190915260600190565b5f60208284031215611965575f80fd5b815161192a816118fb565b5f60208284031215611980575f80fd5b8151801515811461192a575f80fd5b634e487b7160e01b5f52601160045260245ffd5b80820281158282048414176119ba576119ba61198f565b92915050565b5f826119da57634e487b7160e01b5f52601260045260245ffd5b500490565b818103818111156119ba576119ba61198f565b634e487b7160e01b5f52604160045260245ffd5b5f6020808385031215611a17575f80fd5b825167ffffffffffffffff80821115611a2e575f80fd5b818501915085601f830112611a41575f80fd5b815181811115611a5357611a536119f2565b8060051b604051601f19603f83011681018181108582111715611a7857611a786119f2565b604052918252848201925083810185019188831115611a95575f80fd5b938501935b8285101561181757845184529385019392850192611a9a565b634e487b7160e01b5f52603260045260245ffd5b5f60018201611ad857611ad861198f565b5060010190565b808201808211156119ba576119ba61198f56fe9b779b17422d0df92223018b32b4d1fa46e071723d6817e2486d003becc55f00a2646970667358221220d53af9de4bf5920df97b25ced7addb1fa60dbf552bbdaa37297b05c3087c370164736f6c63430008180033","linkReferences":{}},"methodIdentifiers":{"auctionFee()":"14525b6b","auctions(uint256)":"571a26a0","batchListProperties(uint256[],uint256[])":"c3999a32","buyProperty(uint256)":"6fa830a6","cancelListing(uint256)":"305a67a8","createAuction(uint256,uint256,uint256)":"cda4beef","endAuction(uint256)":"b9a2de3a","gameToken()":"c3dfdae6","getActiveListings()":"87c35bc0","getActiveListingsCount()":"7b55927c","listProperty(uint256,uint256)":"4eda529b","listingFee()":"6a1b7ecc","listings(uint256)":"de74e57b","owner()":"8da5cb5b","placeBid(uint256,uint256)":"57c90de5","propertyNFT()":"37f76838","renounceOwnership()":"715018a6","transferOwnership(address)":"f2fde38b"},"id":37}