{"abi":[{"type":"constructor","inputs":[],"stateMutability":"nonpayable"},{"type":"function","name":"approve","inputs":[{"name":"to","type":"address","internalType":"address"},{"name":"tokenId","type":"uint256","internalType":"uint256"}],"outputs":[],"stateMutability":"nonpayable"},{"type":"function","name":"balanceOf","inputs":[{"name":"owner","type":"address","internalType":"address"}],"outputs":[{"name":"","type":"uint256","internalType":"uint256"}],"stateMutability":"view"},{"type":"function","name":"batchMintProperties","inputs":[{"name":"to","type":"address","internalType":"address"},{"name":"propertyTypes","type":"uint8[]","internalType":"enum PropertyNFT.PropertyType[]"},{"name":"values","type":"uint256[]","internalType":"uint256[]"},{"name":"yieldRates","type":"uint256[]","internalType":"uint256[]"}],"outputs":[{"name":"","type":"uint256[]","internalType":"uint256[]"}],"stateMutability":"nonpayable"},{"type":"function","name":"gameToken","inputs":[],"outputs":[{"name":"","type":"address","internalType":"contract IERC20"}],"stateMutability":"view"},{"type":"function","name":"getApproved","inputs":[{"name":"tokenId","type":"uint256","internalType":"uint256"}],"outputs":[{"name":"","type":"address","internalType":"address"}],"stateMutability":"view"},{"type":"function","name":"getOwnerProperties","inputs":[{"name":"owner","type":"address","internalType":"address"}],"outputs":[{"name":"","type":"uint256[]","internalType":"uint256[]"}],"stateMutability":"view"},{"type":"function","name":"getOwnerPropertyCount","inputs":[{"name":"owner","type":"address","internalType":"address"}],"outputs":[{"name":"","type":"uint256","internalType":"uint256"}],"stateMutability":"view"},{"type":"function","name":"getProperty","inputs":[{"name":"tokenId","type":"uint256","internalType":"uint256"}],"outputs":[{"name":"","type":"tuple","internalType":"struct PropertyNFT.Property","components":[{"name":"propertyType","type":"uint8","internalType":"enum PropertyNFT.PropertyType"},{"name":"value","type":"uint256","internalType":"uint256"},{"name":"yieldRate","type":"uint256","internalType":"uint256"},{"name":"rwaContract","type":"address","internalType":"address"},{"name":"rwaTokenId","type":"uint256","internalType":"uint256"},{"name":"totalYieldEarned","type":"uint256","internalType":"uint256"},{"name":"createdAt","type":"uint256","internalType":"uint256"},{"name":"isActive","type":"bool","internalType":"bool"}]}],"stateMutability":"view"},{"type":"function","name":"getPropertyTypeCount","inputs":[{"name":"propertyType","type":"uint8","internalType":"enum PropertyNFT.PropertyType"}],"outputs":[{"name":"","type":"uint256","internalType":"uint256"}],"stateMutability":"view"},{"type":"function","name":"isApprovedForAll","inputs":[{"name":"owner","type":"address","internalType":"address"},{"name":"operator","type":"address","internalType":"address"}],"outputs":[{"name":"","type":"bool","internalType":"bool"}],"stateMutability":"view"},{"type":"function","name":"linkToRWA","inputs":[{"name":"tokenId","type":"uint256","internalType":"uint256"},{"name":"rwaContract","type":"address","internalType":"address"},{"name":"rwaTokenId","type":"uint256","internalType":"uint256"}],"outputs":[],"stateMutability":"nonpayable"},{"type":"function","name":"mintProperty","inputs":[{"name":"to","type":"address","internalType":"address"},{"name":"propertyType","type":"uint8","internalType":"enum PropertyNFT.PropertyType"},{"name":"value","type":"uint256","internalType":"uint256"},{"name":"yieldRate","type":"uint256","internalType":"uint256"}],"outputs":[{"name":"","type":"uint256","internalType":"uint256"}],"stateMutability":"nonpayable"},{"type":"function","name":"name","inputs":[],"outputs":[{"name":"","type":"string","internalType":"string"}],"stateMutability":"view"},{"type":"function","name":"owner","inputs":[],"outputs":[{"name":"","type":"address","internalType":"address"}],"stateMutability":"view"},{"type":"function","name":"ownerOf","inputs":[{"name":"tokenId","type":"uint256","internalType":"uint256"}],"outputs":[{"name":"","type":"address","internalType":"address"}],"stateMutability":"view"},{"type":"function","name":"ownerProperties","inputs":[{"name":"","type":"address","internalType":"address"},{"name":"","type":"uint256","internalType":"uint256"}],"outputs":[{"name":"","type":"uint256","internalType":"uint256"}],"stateMutability":"view"},{"type":"function","name":"properties","inputs":[{"name":"","type":"uint256","internalType":"uint256"}],"outputs":[{"name":"propertyType","type":"uint8","internalType":"enum PropertyNFT.PropertyType"},{"name":"value","type":"uint256","internalType":"uint256"},{"name":"yieldRate","type":"uint256","internalType":"uint256"},{"name":"rwaContract","type":"address","internalType":"address"},{"name":"rwaTokenId","type":"uint256","internalType":"uint256"},{"name":"totalYieldEarned","type":"uint256","internalType":"uint256"},{"name":"createdAt","type":"uint256","internalType":"uint256"},{"name":"isActive","type":"bool","internalType":"bool"}],"stateMutability":"view"},{"type":"function","name":"propertyCosts","inputs":[{"name":"","type":"uint8","internalType":"enum PropertyNFT.PropertyType"}],"outputs":[{"name":"","type":"uint256","internalType":"uint256"}],"stateMutability":"view"},{"type":"function","name":"propertyTypeCounts","inputs":[{"name":"","type":"uint8","internalType":"enum PropertyNFT.PropertyType"}],"outputs":[{"name":"","type":"uint256","internalType":"uint256"}],"stateMutability":"view"},{"type":"function","name":"purchaseProperty","inputs":[{"name":"propertyType","type":"uint8","internalType":"enum PropertyNFT.PropertyType"},{"name":"value","type":"uint256","internalType":"uint256"},{"name":"yieldRate","type":"uint256","internalType":"uint256"}],"outputs":[{"name":"","type":"uint256","internalType":"uint256"}],"stateMutability":"nonpayable"},{"type":"function","name":"renounceOwnership","inputs":[],"outputs":[],"stateMutability":"nonpayable"},{"type":"function","name":"safeTransferFrom","inputs":[{"name":"from","type":"address","internalType":"address"},{"name":"to","type":"address","internalType":"address"},{"name":"tokenId","type":"uint256","internalType":"uint256"}],"outputs":[],"stateMutability":"nonpayable"},{"type":"function","name":"safeTransferFrom","inputs":[{"name":"from","type":"address","internalType":"address"},{"name":"to","type":"address","internalType":"address"},{"name":"tokenId","type":"uint256","internalType":"uint256"},{"name":"data","type":"bytes","internalType":"bytes"}],"outputs":[],"stateMutability":"nonpayable"},{"type":"function","name":"setApprovalForAll","inputs":[{"name":"operator","type":"address","internalType":"address"},{"name":"approved","type":"bool","internalType":"bool"}],"outputs":[],"stateMutability":"nonpayable"},{"type":"function","name":"setGameToken","inputs":[{"name":"_gameToken","type":"address","internalType":"address"}],"outputs":[],"stateMutability":"nonpayable"},{"type":"function","name":"supportsInterface","inputs":[{"name":"interfaceId","type":"bytes4","internalType":"bytes4"}],"outputs":[{"name":"","type":"bool","internalType":"bool"}],"stateMutability":"view"},{"type":"function","name":"symbol","inputs":[],"outputs":[{"name":"","type":"string","internalType":"string"}],"stateMutability":"view"},{"type":"function","name":"tokenURI","inputs":[{"name":"tokenId","type":"uint256","internalType":"uint256"}],"outputs":[{"name":"","type":"string","internalType":"string"}],"stateMutability":"view"},{"type":"function","name":"transferFrom","inputs":[{"name":"from","type":"address","internalType":"address"},{"name":"to","type":"address","internalType":"address"},{"name":"tokenId","type":"uint256","internalType":"uint256"}],"outputs":[],"stateMutability":"nonpayable"},{"type":"function","name":"transferOwnership","inputs":[{"name":"newOwner","type":"address","internalType":"address"}],"outputs":[],"stateMutability":"nonpayable"},{"type":"function","name":"upgradeProperty","inputs":[{"name":"tokenId","type":"uint256","internalType":"uint256"},{"name":"newType","type":"uint8","internalType":"enum PropertyNFT.PropertyType"},{"name":"newValue","type":"uint256","internalType":"uint256"},{"name":"newYieldRate","type":"uint256","internalType":"uint256"}],"outputs":[],"stateMutability":"nonpayable"},{"type":"function","name":"withdrawTokens","inputs":[],"outputs":[],"stateMutability":"nonpayable"},{"type":"event","name":"Approval","inputs":[{"name":"owner","type":"address","indexed":true,"internalType":"address"},{"name":"approved","type":"address","indexed":true,"internalType":"address"},{"name":"tokenId","type":"uint256","indexed":true,"internalType":"uint256"}],"anonymous":false},{"type":"event","name":"ApprovalForAll","inputs":[{"name":"owner","type":"address","indexed":true,"internalType":"address"},{"name":"operator","type":"address","indexed":true,"internalType":"address"},{"name":"approved","type":"bool","indexed":false,"internalType":"bool"}],"anonymous":false},{"type":"event","name":"OwnershipTransferred","inputs":[{"name":"previousOwner","type":"address","indexed":true,"internalType":"address"},{"name":"newOwner","type":"address","indexed":true,"internalType":"address"}],"anonymous":false},{"type":"event","name":"PropertiesBatchMinted","inputs":[{"name":"owner","type":"address","indexed":true,"internalType":"address"},{"name":"tokenIds","type":"uint256[]","indexed":false,"internalType":"uint256[]"}],"anonymous":false},{"type":"event","name":"PropertyCreated","inputs":[{"name":"tokenId","type":"uint256","indexed":true,"internalType":"uint256"},{"name":"owner","type":"address","indexed":true,"internalType":"address"},{"name":"propertyType","type":"uint8","indexed":false,"internalType":"enum PropertyNFT.PropertyType"},{"name":"value","type":"uint256","indexed":false,"internalType":"uint256"}],"anonymous":false},{"type":"event","name":"PropertyLinkedToRWA","inputs":[{"name":"tokenId","type":"uint256","indexed":true,"internalType":"uint256"},{"name":"rwaContract","type":"address","indexed":false,"internalType":"address"},{"name":"rwaTokenId","type":"uint256","indexed":false,"internalType":"uint256"}],"anonymous":false},{"type":"event","name":"PropertyPurchased","inputs":[{"name":"tokenId","type":"uint256","indexed":true,"internalType":"uint256"},{"name":"buyer","type":"address","indexed":true,"internalType":"address"},{"name":"propertyType","type":"uint8","indexed":false,"internalType":"enum PropertyNFT.PropertyType"},{"name":"cost","type":"uint256","indexed":false,"internalType":"uint256"}],"anonymous":false},{"type":"event","name":"PropertyUpgraded","inputs":[{"name":"tokenId","type":"uint256","indexed":true,"internalType":"uint256"},{"name":"newType","type":"uint8","indexed":false,"internalType":"enum PropertyNFT.PropertyType"},{"name":"newValue","type":"uint256","indexed":false,"internalType":"uint256"}],"anonymous":false},{"type":"event","name":"Transfer","inputs":[{"name":"from","type":"address","indexed":true,"internalType":"address"},{"name":"to","type":"address","indexed":true,"internalType":"address"},{"name":"tokenId","type":"uint256","indexed":true,"internalType":"uint256"}],"anonymous":false},{"type":"error","name":"ERC721IncorrectOwner","inputs":[{"name":"sender","type":"address","internalType":"address"},{"name":"tokenId","type":"uint256","internalType":"uint256"},{"name":"owner","type":"address","internalType":"address"}]},{"type":"error","name":"ERC721InsufficientApproval","inputs":[{"name":"operator","type":"address","internalType":"address"},{"name":"tokenId","type":"uint256","internalType":"uint256"}]},{"type":"error","name":"ERC721InvalidApprover","inputs":[{"name":"approver","type":"address","internalType":"address"}]},{"type":"error","name":"ERC721InvalidOperator","inputs":[{"name":"operator","type":"address","internalType":"address"}]},{"type":"error","name":"ERC721InvalidOwner","inputs":[{"name":"owner","type":"address","internalType":"address"}]},{"type":"error","name":"ERC721InvalidReceiver","inputs":[{"name":"receiver","type":"address","internalType":"address"}]},{"type":"error","name":"ERC721InvalidSender","inputs":[{"name":"sender","type":"address","internalType":"address"}]},{"type":"error","name":"ERC721NonexistentToken","inputs":[{"name":"tokenId","type":"uint256","internalType":"uint256"}]},{"type":"error","name":"OwnableInvalidOwner","inputs":[{"name":"owner","type":"address","internalType":"address"}]},{"type":"error","name":"OwnableUnauthorizedAccount","inputs":[{"name":"account","type":"address","internalType":"address"}]},{"type":"error","name":"ReentrancyGuardReentrantCall","inputs":[]}],"bytecode":{"object":"0x608060405234801562000010575f80fd5b50336040518060400160405280600b81526020016a141c9bdc195c9d1e53919560aa1b81525060405180604001604052806004815260200163050524f560e41b815250815f9081620000639190620002bf565b506001620000728282620002bf565b5050506001600160a01b038116620000a357604051631e4fbdf760e01b81525f600482015260240160405180910390fd5b620000ae81620001d0565b5060017f9b779b17422d0df92223018b32b4d1fa46e071723d6817e2486d003becc55f00555f8080526008602081905268056bc75e2d631000007f5eff886ea0ce6ca488a3d6e336d6c0f75f46d19b42c06ce5ee98e42c96d256c755680ad78ebc5ac620000091600160038111156200012b576200012b6200038b565b81526020019081526020015f2081905550681b1ae4d6e2ef50000060085f600260038111156200015f576200015f6200038b565b60038111156200017357620001736200038b565b81526020019081526020015f2081905550683635c9adc5dea0000060085f600380811115620001a657620001a66200038b565b6003811115620001ba57620001ba6200038b565b815260208101919091526040015f20556200039f565b600680546001600160a01b038381166001600160a01b0319831681179093556040519116919082907f8be0079c531659141344cd1fd0a4f28419497f9722a3daafe3b4186f6b6457e0905f90a35050565b634e487b7160e01b5f52604160045260245ffd5b600181811c908216806200024a57607f821691505b6020821081036200026957634e487b7160e01b5f52602260045260245ffd5b50919050565b601f821115620002ba57805f5260205f20601f840160051c81016020851015620002965750805b601f840160051c820191505b81811015620002b7575f8155600101620002a2565b50505b505050565b81516001600160401b03811115620002db57620002db62000221565b620002f381620002ec845462000235565b846200026f565b602080601f83116001811462000329575f8415620003115750858301515b5f19600386901b1c1916600185901b17855562000383565b5f85815260208120601f198616915b82811015620003595788860151825594840194600190910190840162000338565b50858210156200037757878501515f19600388901b60f8161c191681555b505060018460011b0185555b505050505050565b634e487b7160e01b5f52602160045260245ffd5b61288380620003ad5f395ff3fe608060405234801561000f575f80fd5b50600436106101e7575f3560e01c806380d29e6611610109578063c87b56dd1161009e578063f2fde38b1161006e578063f2fde38b14610456578063f412cc6e14610469578063f7b1080814610488578063fc0dbbb7146104fb575f80fd5b8063c87b56dd146103f5578063cb64489714610408578063d79fb4ff1461041b578063e985e9c514610443575f80fd5b806395d89b41116100d957806395d89b41146103b4578063a22cb465146103bc578063b88d4fde146103cf578063c3dfdae6146103e2575f80fd5b806380d29e66146103755780638d8f2adb146103885780638da5cb5b146103905780638f48bd5b146103a1575f80fd5b806342842e0e1161017f5780636b39bac81161014f5780636b39bac81461033457806370a0823114610347578063715018a61461035a5780637d61a62b14610362575f80fd5b806342842e0e146102dc57806355d5efb4146102ef5780635a25f7bd146103025780636352211e14610321575f80fd5b80632222f588116101ba5780632222f5881461026857806323b872dd1461028957806325add6521461029c57806332665ffb146102bc575f80fd5b806301ffc9a7146101eb57806306fdde0314610213578063081812fc14610228578063095ea7b314610253575b5f80fd5b6101fe6101f9366004612150565b61050e565b60405190151581526020015b60405180910390f35b61021b61055f565b60405161020a91906121b8565b61023b6102363660046121ca565b6105ee565b6040516001600160a01b03909116815260200161020a565b6102666102613660046121fc565b610615565b005b61027b610276366004612232565b610624565b60405190815260200161020a565b610266610297366004612262565b610ab2565b6102af6102aa3660046122e3565b610b3b565b60405161020a9190612386565b6102cf6102ca3660046121ca565b610ead565b60405161020a91906123fd565b6102666102ea366004612262565b610f99565b61027b6102fd366004612466565b610fb8565b61027b6103103660046124a5565b60086020525f908152604090205481565b61023b61032f3660046121ca565b611192565b6102666103423660046124be565b61119c565b61027b6103553660046124e0565b6112b4565b6102666112f9565b6102666103703660046124f9565b61130c565b6102666103833660046124e0565b6114dc565b610266611506565b6006546001600160a01b031661023b565b61027b6103af3660046121fc565b611699565b61021b6116c4565b6102666103ca366004612529565b6116d3565b6102666103dd366004612572565b6116de565b60075461023b906001600160a01b031681565b61021b6104033660046121ca565b6116f6565b6102af6104163660046124e0565b611766565b61027b6104293660046124e0565b6001600160a01b03165f908152600b602052604090205490565b6101fe610451366004612647565b6117cf565b6102666104643660046124e0565b6117fc565b61027b6104773660046124a5565b600c6020525f908152604090205481565b6104e76104963660046121ca565b600a6020525f90815260409020805460018201546002830154600384015460048501546005860154600687015460079097015460ff96871697959694956001600160a01b0390941694929391921688565b60405161020a989796959493929190612678565b61027b6105093660046124a5565b611836565b5f6001600160e01b031982166380ac58cd60e01b148061053e57506001600160e01b03198216635b5e139f60e01b145b8061055957506301ffc9a760e01b6001600160e01b03198316145b92915050565b60605f805461056d906126c7565b80601f0160208091040260200160405190810160405280929190818152602001828054610599906126c7565b80156105e45780601f106105bb576101008083540402835291602001916105e4565b820191905f5260205f20905b8154815290600101906020018083116105c757829003601f168201915b5050505050905090565b5f6105f882611872565b505f828152600460205260409020546001600160a01b0316610559565b6106208282336118aa565b5050565b5f61062d6118b7565b6007546001600160a01b031661067f5760405162461bcd60e51b815260206004820152601260248201527111d85b59481d1bdad95b881b9bdd081cd95d60721b60448201526064015b60405180910390fd5b5f60085f866003811115610695576106956123c9565b60038111156106a6576106a66123c9565b81526020019081526020015f205490505f81116106fd5760405162461bcd60e51b8152602060048201526015602482015274496e76616c69642070726f7065727479207479706560581b6044820152606401610676565b6007546040516370a0823160e01b815233600482015282916001600160a01b0316906370a0823190602401602060405180830381865afa158015610743573d5f803e3d5ffd5b505050506040513d601f19601f8201168201806040525081019061076791906126ff565b10156107b55760405162461bcd60e51b815260206004820152601b60248201527f496e73756666696369656e74205459434f4f4e2062616c616e636500000000006044820152606401610676565b6007546040516323b872dd60e01b8152336004820152306024820152604481018390526001600160a01b03909116906323b872dd906064016020604051808303815f875af1158015610809573d5f803e3d5ffd5b505050506040513d601f19601f8201168201806040525081019061082d9190612716565b6108715760405162461bcd60e51b8152602060048201526015602482015274151bdad95b881d1c985b9cd9995c8819985a5b1959605a1b6044820152606401610676565b600980545f918261088183612745565b91905055905061089133826118e5565b6040518061010001604052808760038111156108af576108af6123c9565b8152602080820188905260408083018890525f606084018190526080840181905260a084018190524260c0850152600160e0909401849052858152600a90925290208251815491929091839160ff1990911690836003811115610914576109146123c9565b021790555060208281015160018381019190915560408085015160028501556060850151600380860180546001600160a01b0319166001600160a01b03909316929092179091556080860151600486015560a0860151600586015560c0860151600686015560e0909501516007909401805460ff191694151594909417909355335f908152600b835292832080549182018155835290822001839055600c9188908111156109c4576109c46123c9565b60038111156109d5576109d56123c9565b81526020019081526020015f205f8154809291906109f290612745565b9190505550336001600160a01b0316817f828d9172b5c26092cc7b90e5975570842347a49f37e3c060c3c6050c1f3f943a8888604051610a3392919061275d565b60405180910390a3336001600160a01b0316817fb30e21874a58b588dd7fa5662db417747b356f4a5eb09895bec9ea032c22c93d8885604051610a7792919061275d565b60405180910390a3915050610aab60017f9b779b17422d0df92223018b32b4d1fa46e071723d6817e2486d003becc55f0055565b9392505050565b6001600160a01b038216610adb57604051633250574960e11b81525f6004820152602401610676565b5f610ae78383336118fe565b9050836001600160a01b0316816001600160a01b031614610b35576040516364283d7b60e01b81526001600160a01b0380861660048301526024820184905282166044820152606401610676565b50505050565b6060610b45611a1b565b8584148015610b5357508382145b610b975760405162461bcd60e51b8152602060048201526015602482015274082e4e4c2f240d8cadccee8d040dad2e6dac2e8c6d605b1b6044820152606401610676565b8515801590610ba7575060328611155b610be85760405162461bcd60e51b8152602060048201526012602482015271496e76616c69642062617463682073697a6560701b6044820152606401610676565b5f8667ffffffffffffffff811115610c0257610c0261255e565b604051908082528060200260200182016040528015610c2b578160200160208202803683370190505b5090505f5b87811015610e5f57600980545f9182610c4883612745565b919050559050610c588b826118e5565b6040518061010001604052808b8b85818110610c7657610c76612778565b9050602002016020810190610c8b91906124a5565b6003811115610c9c57610c9c6123c9565b8152602001898985818110610cb357610cb3612778565b905060200201358152602001878785818110610cd157610cd1612778565b602090810292909201358352505f828201819052604080840182905260608401829052426080850152600160a0909401849052858252600a909252208251815491929091839160ff1990911690836003811115610d3057610d306123c9565b0217905550602082810151600183810191909155604080850151600285015560608501516003850180546001600160a01b0319166001600160a01b039283161790556080860151600486015560a0860151600586015560c0860151600686015560e0909501516007909401805460ff191694151594909417909355928e165f908152600b82529182208054938401815582528120909101829055600c908b8b85818110610ddf57610ddf612778565b9050602002016020810190610df491906124a5565b6003811115610e0557610e056123c9565b6003811115610e1657610e166123c9565b81526020019081526020015f205f815480929190610e3390612745565b919050555080838381518110610e4b57610e4b612778565b602090810291909101015250600101610c30565b50886001600160a01b03167fbbde24150c326c205f41f669f09a3ccd4ea9d193b34e274e6763c851ad6518b882604051610e999190612386565b60405180910390a298975050505050505050565b610ef9604080516101008101909152805f81526020015f81526020015f81526020015f6001600160a01b031681526020015f81526020015f81526020015f81526020015f151581525090565b5f828152600a602052604090819020815161010081019092528054829060ff166003811115610f2a57610f2a6123c9565b6003811115610f3b57610f3b6123c9565b8152600182015460208201526002820154604082015260038201546001600160a01b0316606082015260048201546080820152600582015460a0820152600682015460c082015260079091015460ff16151560e09091015292915050565b610fb383838360405180602001604052805f8152506116de565b505050565b5f610fc1611a1b565b600980545f9182610fd183612745565b919050559050610fe186826118e5565b604051806101000160405280866003811115610fff57610fff6123c9565b8152602080820187905260408083018790525f606084018190526080840181905260a084018190524260c0850152600160e0909401849052858152600a90925290208251815491929091839160ff1990911690836003811115611064576110646123c9565b021790555060208281015160018381019190915560408085015160028501556060850151600380860180546001600160a01b0319166001600160a01b039384161790556080870151600487015560a0870151600587015560c0870151600687015560e0909601516007909501805460ff191695151595909517909455928a165f908152600b835292832080549182018155835290822001839055600c918790811115611112576111126123c9565b6003811115611123576111236123c9565b81526020019081526020015f205f81548092919061114090612745565b9190505550856001600160a01b0316817f828d9172b5c26092cc7b90e5975570842347a49f37e3c060c3c6050c1f3f943a878760405161118192919061275d565b60405180910390a395945050505050565b5f61055982611872565b336111a684611192565b6001600160a01b0316146111e85760405162461bcd60e51b81526020600482015260096024820152682737ba1037bbb732b960b91b6044820152606401610676565b5f838152600a602052604090206007015460ff1661123e5760405162461bcd60e51b815260206004820152601360248201527250726f7065727479206e6f742061637469766560681b6044820152606401610676565b5f838152600a60209081526040918290206003810180546001600160a01b0319166001600160a01b0387169081179091556004909101849055825190815290810183905284917fc395d71585a1c7d91a003fe2b3d8f591b94fb980b66d5c8d25803a92f03a77b4910160405180910390a2505050565b5f6001600160a01b0382166112de576040516322718ad960e21b81525f6004820152602401610676565b506001600160a01b03165f9081526003602052604090205490565b611301611a1b565b61130a5f611a48565b565b3361131685611192565b6001600160a01b0316146113585760405162461bcd60e51b81526020600482015260096024820152682737ba1037bbb732b960b91b6044820152606401610676565b5f848152600a602052604090206007015460ff166113ae5760405162461bcd60e51b815260206004820152601360248201527250726f7065727479206e6f742061637469766560681b6044820152606401610676565b5f848152600a602052604081205460ff1690600c908260038111156113d5576113d56123c9565b60038111156113e6576113e66123c9565b81526020019081526020015f205f8154809291906114039061278c565b9190505550600c5f85600381111561141d5761141d6123c9565b600381111561142e5761142e6123c9565b81526020019081526020015f205f81548092919061144b90612745565b90915550505f858152600a60205260409020805485919060ff1916600183600381111561147a5761147a6123c9565b02179055505f858152600a602052604090819020600181018590556002018390555185907f47443aaadfb3aecd43b01a8cbc041fa65029affb63a2e16c3eb4169882176bf6906114cd908790879061275d565b60405180910390a25050505050565b6114e4611a1b565b600780546001600160a01b0319166001600160a01b0392909216919091179055565b61150e611a1b565b6007546040516370a0823160e01b81523060048201525f916001600160a01b0316906370a0823190602401602060405180830381865afa158015611554573d5f803e3d5ffd5b505050506040513d601f19601f8201168201806040525081019061157891906126ff565b90505f81116115c15760405162461bcd60e51b81526020600482015260156024820152744e6f20746f6b656e7320746f20776974686472617760581b6044820152606401610676565b6007546001600160a01b031663a9059cbb6115e46006546001600160a01b031690565b6040516001600160e01b031960e084901b1681526001600160a01b039091166004820152602481018490526044016020604051808303815f875af115801561162e573d5f803e3d5ffd5b505050506040513d601f19601f820116820180604052508101906116529190612716565b6116965760405162461bcd60e51b8152602060048201526015602482015274151bdad95b881d1c985b9cd9995c8819985a5b1959605a1b6044820152606401610676565b50565b600b602052815f5260405f2081815481106116b2575f80fd5b905f5260205f20015f91509150505481565b60606001805461056d906126c7565b610620338383611a99565b6116e9848484610ab2565b610b353385858585611b37565b606061170182611872565b505f61171760408051602081019091525f815290565b90505f8151116117355760405180602001604052805f815250610aab565b8061173f84611c5f565b6040516020016117509291906127a1565b6040516020818303038152906040529392505050565b6001600160a01b0381165f908152600b60209081526040918290208054835181840281018401909452808452606093928301828280156117c357602002820191905f5260205f20905b8154815260200190600101908083116117af575b50505050509050919050565b6001600160a01b039182165f90815260056020908152604080832093909416825291909152205460ff1690565b611804611a1b565b6001600160a01b03811661182d57604051631e4fbdf760e01b81525f6004820152602401610676565b61169681611a48565b5f600c5f83600381111561184c5761184c6123c9565b600381111561185d5761185d6123c9565b81526020019081526020015f20549050919050565b5f818152600260205260408120546001600160a01b03168061055957604051637e27328960e01b815260048101849052602401610676565b610fb38383836001611cef565b6118bf611df3565b60027f9b779b17422d0df92223018b32b4d1fa46e071723d6817e2486d003becc55f0055565b610620828260405180602001604052805f815250611e35565b5f8061190b858585611e4c565b90506001600160a01b038116156119d9576001600160a01b0381165f908152600b60205260408120905b81548110156119d6578582828154811061195157611951612778565b905f5260205f200154036119ce578154829061196f906001906127cf565b8154811061197f5761197f612778565b905f5260205f20015482828154811061199a5761199a612778565b905f5260205f200181905550818054806119b6576119b66127e2565b600190038181905f5260205f20015f905590556119d6565b600101611935565b50505b6001600160a01b03851615611a13576001600160a01b0385165f908152600b60209081526040822080546001810182559083529120018490555b949350505050565b6006546001600160a01b0316331461130a5760405163118cdaa760e01b8152336004820152602401610676565b600680546001600160a01b038381166001600160a01b0319831681179093556040519116919082907f8be0079c531659141344cd1fd0a4f28419497f9722a3daafe3b4186f6b6457e0905f90a35050565b6001600160a01b038216611acb57604051630b61174360e31b81526001600160a01b0383166004820152602401610676565b6001600160a01b038381165f81815260056020908152604080832094871680845294825291829020805460ff191686151590811790915591519182527f17307eab39ab6107e8899845ad3d59bd9653f200f220920489ca2b5937696c31910160405180910390a3505050565b6001600160a01b0383163b15611c5857604051630a85bd0160e11b81526001600160a01b0384169063150b7a0290611b799088908890879087906004016127f6565b6020604051808303815f875af1925050508015611bb3575060408051601f3d908101601f19168201909252611bb091810190612832565b60015b611c1a573d808015611be0576040519150601f19603f3d011682016040523d82523d5f602084013e611be5565b606091505b5080515f03611c1257604051633250574960e11b81526001600160a01b0385166004820152602401610676565b805160208201fd5b6001600160e01b03198116630a85bd0160e11b14611c5657604051633250574960e11b81526001600160a01b0385166004820152602401610676565b505b5050505050565b60605f611c6b83611f3e565b60010190505f8167ffffffffffffffff811115611c8a57611c8a61255e565b6040519080825280601f01601f191660200182016040528015611cb4576020820181803683370190505b5090508181016020015b5f19016f181899199a1a9b1b9c1cb0b131b232b360811b600a86061a8153600a8504945084611cbe57509392505050565b8080611d0357506001600160a01b03821615155b15611dc4575f611d1284611872565b90506001600160a01b03831615801590611d3e5750826001600160a01b0316816001600160a01b031614155b8015611d515750611d4f81846117cf565b155b15611d7a5760405163a9fbf51f60e01b81526001600160a01b0384166004820152602401610676565b8115611dc25783856001600160a01b0316826001600160a01b03167f8c5be1e5ebec7d5bd14f71427d1e84f3dd0314c0f7b2291e5b200ac8c7c3b92560405160405180910390a45b505b50505f90815260046020526040902080546001600160a01b0319166001600160a01b0392909216919091179055565b7f9b779b17422d0df92223018b32b4d1fa46e071723d6817e2486d003becc55f005460020361130a57604051633ee5aeb560e01b815260040160405180910390fd5b611e3f8383612015565b610fb3335f858585611b37565b5f828152600260205260408120546001600160a01b0390811690831615611e7857611e78818486612076565b6001600160a01b03811615611eb257611e935f855f80611cef565b6001600160a01b0381165f90815260036020526040902080545f190190555b6001600160a01b03851615611ee0576001600160a01b0385165f908152600360205260409020805460010190555b5f8481526002602052604080822080546001600160a01b0319166001600160a01b0389811691821790925591518793918516917fddf252ad1be2c89b69c2b068fc378daa952ba7f163c4a11628f55a4df523b3ef91a4949350505050565b5f8072184f03e93ff9f4daa797ed6e38ed64bf6a1f0160401b8310611f7c5772184f03e93ff9f4daa797ed6e38ed64bf6a1f0160401b830492506040015b6d04ee2d6d415b85acef81000000008310611fa8576d04ee2d6d415b85acef8100000000830492506020015b662386f26fc100008310611fc657662386f26fc10000830492506010015b6305f5e1008310611fde576305f5e100830492506008015b6127108310611ff257612710830492506004015b60648310612004576064830492506002015b600a83106105595760010192915050565b6001600160a01b03821661203e57604051633250574960e11b81525f6004820152602401610676565b5f61204a83835f6118fe565b90506001600160a01b03811615610fb3576040516339e3563760e11b81525f6004820152602401610676565b6120818383836120da565b610fb3576001600160a01b0383166120af57604051637e27328960e01b815260048101829052602401610676565b60405163177e802f60e01b81526001600160a01b038316600482015260248101829052604401610676565b5f6001600160a01b03831615801590611a135750826001600160a01b0316846001600160a01b03161480612113575061211384846117cf565b80611a135750505f908152600460205260409020546001600160a01b03908116911614919050565b6001600160e01b031981168114611696575f80fd5b5f60208284031215612160575f80fd5b8135610aab8161213b565b5f5b8381101561218557818101518382015260200161216d565b50505f910152565b5f81518084526121a481602086016020860161216b565b601f01601f19169290920160200192915050565b602081525f610aab602083018461218d565b5f602082840312156121da575f80fd5b5035919050565b80356001600160a01b03811681146121f7575f80fd5b919050565b5f806040838503121561220d575f80fd5b612216836121e1565b946020939093013593505050565b8035600481106121f7575f80fd5b5f805f60608486031215612244575f80fd5b61224d84612224565b95602085013595506040909401359392505050565b5f805f60608486031215612274575f80fd5b61227d846121e1565b925061228b602085016121e1565b9150604084013590509250925092565b5f8083601f8401126122ab575f80fd5b50813567ffffffffffffffff8111156122c2575f80fd5b6020830191508360208260051b85010111156122dc575f80fd5b9250929050565b5f805f805f805f6080888a0312156122f9575f80fd5b612302886121e1565b9650602088013567ffffffffffffffff8082111561231e575f80fd5b61232a8b838c0161229b565b909850965060408a0135915080821115612342575f80fd5b61234e8b838c0161229b565b909650945060608a0135915080821115612366575f80fd5b506123738a828b0161229b565b989b979a50959850939692959293505050565b602080825282518282018190525f9190848201906040850190845b818110156123bd578351835292840192918401916001016123a1565b50909695505050505050565b634e487b7160e01b5f52602160045260245ffd5b600481106123f957634e487b7160e01b5f52602160045260245ffd5b9052565b5f610100820190506124108284516123dd565b602083015160208301526040830151604083015260018060a01b0360608401511660608301526080830151608083015260a083015160a083015260c083015160c083015260e0830151151560e083015292915050565b5f805f8060808587031215612479575f80fd5b612482856121e1565b935061249060208601612224565b93969395505050506040820135916060013590565b5f602082840312156124b5575f80fd5b610aab82612224565b5f805f606084860312156124d0575f80fd5b8335925061228b602085016121e1565b5f602082840312156124f0575f80fd5b610aab826121e1565b5f805f806080858703121561250c575f80fd5b8435935061249060208601612224565b8015158114611696575f80fd5b5f806040838503121561253a575f80fd5b612543836121e1565b915060208301356125538161251c565b809150509250929050565b634e487b7160e01b5f52604160045260245ffd5b5f805f8060808587031215612585575f80fd5b61258e856121e1565b935061259c602086016121e1565b925060408501359150606085013567ffffffffffffffff808211156125bf575f80fd5b818701915087601f8301126125d2575f80fd5b8135818111156125e4576125e461255e565b604051601f8201601f19908116603f0116810190838211818310171561260c5761260c61255e565b816040528281528a6020848701011115612624575f80fd5b826020860160208301375f60208483010152809550505050505092959194509250565b5f8060408385031215612658575f80fd5b612661836121e1565b915061266f602084016121e1565b90509250929050565b6101008101612687828b6123dd565b602082019890985260408101969096526001600160a01b03949094166060860152608085019290925260a084015260c0830152151560e090910152919050565b600181811c908216806126db57607f821691505b6020821081036126f957634e487b7160e01b5f52602260045260245ffd5b50919050565b5f6020828403121561270f575f80fd5b5051919050565b5f60208284031215612726575f80fd5b8151610aab8161251c565b634e487b7160e01b5f52601160045260245ffd5b5f6001820161275657612756612731565b5060010190565b6040810161276b82856123dd565b8260208301529392505050565b634e487b7160e01b5f52603260045260245ffd5b5f8161279a5761279a612731565b505f190190565b5f83516127b281846020880161216b565b8351908301906127c681836020880161216b565b01949350505050565b8181038181111561055957610559612731565b634e487b7160e01b5f52603160045260245ffd5b6001600160a01b03858116825284166020820152604081018390526080606082018190525f906128289083018461218d565b9695505050505050565b5f60208284031215612842575f80fd5b8151610aab8161213b56fea2646970667358221220cb4eb16c3b4922367c85ae5766a0769c5bd050c243afb69f238558e08119068c64736f6c63430008180033","linkReferences":{}},"methodIdentifiers":{"approve(address,uint256)":"095ea7b3","balanceOf(address)":"70a08231","batchMintProperties(address,uint8[],uint256[],uint256[])":"25add652","gameToken()":"c3dfdae6","getApproved(uint256)":"081812fc","getOwnerProperties(address)":"cb644897","getOwnerPropertyCount(address)":"d79fb4ff","getProperty(uint256)":"32665ffb","getPropertyTypeCount(uint8)":"fc0dbbb7","isApprovedForAll(address,address)":"e985e9c5","linkToRWA(uint256,address,uint256)":"6b39bac8","mintProperty(address,uint8,uint256,uint256)":"55d5efb4","name()":"06fdde03","owner()":"8da5cb5b","ownerOf(uint256)":"6352211e","ownerProperties(address,uint256)":"8f48bd5b","properties(uint256)":"f7b10808","propertyCosts(uint8)":"5a25f7bd","propertyTypeCounts(uint8)":"f412cc6e","purchaseProperty(uint8,uint256,uint256)":"2222f588","renounceOwnership()":"715018a6","safeTransferFrom(address,address,uint256)":"42842e0e","safeTransferFrom(address,address,uint256,bytes)":"b88d4fde","setApprovalForAll(address,bool)":"a22cb465","setGameToken(address)":"80d29e66","supportsInterface(bytes4)":"01ffc9a7","symbol()":"95d89b41","tokenURI(uint256)":"c87b56dd","transferFrom(address,address,uint256)":"23b872dd","transferOwnership(address)":"f2fde38b","upgradeProperty(uint256,uint8,uint256,uint256)":"7d61a62b","withdrawTokens()":"8d8f2adb"},"id":52}