{"abi":[{"type":"constructor","inputs":[{"name":"_propertyNFT","type":"address","internalType":"address"},{"name":"_gameToken","type":"address","internalType":"address"}],"stateMutability":"nonpayable"},{"type":"function","name":"YIELD_UPDATE_INTERVAL","inputs":[],"outputs":[{"name":"","type":"uint256","internalType":"uint256"}],"stateMutability":"view"},{"type":"function","name":"batchClaimYield","inputs":[{"name":"propertyIds","type":"uint256[]","internalType":"uint256[]"}],"outputs":[],"stateMutability":"nonpayable"},{"type":"function","name":"batchDistributeYield","inputs":[{"name":"propertyIds","type":"uint256[]","internalType":"uint256[]"},{"name":"amounts","type":"uint256[]","internalType":"uint256[]"}],"outputs":[],"stateMutability":"nonpayable"},{"type":"function","name":"calculateYield","inputs":[{"name":"propertyId","type":"uint256","internalType":"uint256"}],"outputs":[{"name":"","type":"uint256","internalType":"uint256"}],"stateMutability":"view"},{"type":"function","name":"claimYield","inputs":[{"name":"propertyId","type":"uint256","internalType":"uint256"}],"outputs":[],"stateMutability":"nonpayable"},{"type":"function","name":"distributeYield","inputs":[{"name":"propertyId","type":"uint256","internalType":"uint256"},{"name":"amount","type":"uint256","internalType":"uint256"}],"outputs":[],"stateMutability":"nonpayable"},{"type":"function","name":"gameToken","inputs":[],"outputs":[{"name":"","type":"address","internalType":"contract GameToken"}],"stateMutability":"view"},{"type":"function","name":"getTotalPendingYield","inputs":[{"name":"owner","type":"address","internalType":"address"}],"outputs":[{"name":"","type":"uint256","internalType":"uint256"}],"stateMutability":"view"},{"type":"function","name":"lastYieldUpdate","inputs":[{"name":"","type":"uint256","internalType":"uint256"}],"outputs":[{"name":"","type":"uint256","internalType":"uint256"}],"stateMutability":"view"},{"type":"function","name":"owner","inputs":[],"outputs":[{"name":"","type":"address","internalType":"address"}],"stateMutability":"view"},{"type":"function","name":"pendingYield","inputs":[{"name":"","type":"uint256","internalType":"uint256"}],"outputs":[{"name":"","type":"uint256","internalType":"uint256"}],"stateMutability":"view"},{"type":"function","name":"propertyNFT","inputs":[],"outputs":[{"name":"","type":"address","internalType":"contract PropertyNFT"}],"stateMutability":"view"},{"type":"function","name":"renounceOwnership","inputs":[],"outputs":[],"stateMutability":"nonpayable"},{"type":"function","name":"totalYieldClaimed","inputs":[{"name":"","type":"address","internalType":"address"}],"outputs":[{"name":"","type":"uint256","internalType":"uint256"}],"stateMutability":"view"},{"type":"function","name":"transferOwnership","inputs":[{"name":"newOwner","type":"address","internalType":"address"}],"outputs":[],"stateMutability":"nonpayable"},{"type":"event","name":"BatchYieldClaimed","inputs":[{"name":"owner","type":"address","indexed":true,"internalType":"address"},{"name":"propertyIds","type":"uint256[]","indexed":false,"internalType":"uint256[]"},{"name":"totalAmount","type":"uint256","indexed":false,"internalType":"uint256"}],"anonymous":false},{"type":"event","name":"BatchYieldDistributed","inputs":[{"name":"propertyIds","type":"uint256[]","indexed":false,"internalType":"uint256[]"},{"name":"amounts","type":"uint256[]","indexed":false,"internalType":"uint256[]"}],"anonymous":false},{"type":"event","name":"OwnershipTransferred","inputs":[{"name":"previousOwner","type":"address","indexed":true,"internalType":"address"},{"name":"newOwner","type":"address","indexed":true,"internalType":"address"}],"anonymous":false},{"type":"event","name":"YieldClaimed","inputs":[{"name":"propertyId","type":"uint256","indexed":true,"internalType":"uint256"},{"name":"owner","type":"address","indexed":true,"internalType":"address"},{"name":"amount","type":"uint256","indexed":false,"internalType":"uint256"}],"anonymous":false},{"type":"event","name":"YieldDistributed","inputs":[{"name":"propertyId","type":"uint256","indexed":true,"internalType":"uint256"},{"name":"amount","type":"uint256","indexed":false,"internalType":"uint256"}],"anonymous":false},{"type":"error","name":"OwnableInvalidOwner","inputs":[{"name":"owner","type":"address","internalType":"address"}]},{"type":"error","name":"OwnableUnauthorizedAccount","inputs":[{"name":"account","type":"address","internalType":"address"}]},{"type":"error","name":"ReentrancyGuardReentrantCall","inputs":[]}],"bytecode":{"object":"0x608060405234801561000f575f80fd5b5060405161128638038061128683398101604081905261002e9161011c565b60017f9b779b17422d0df92223018b32b4d1fa46e071723d6817e2486d003becc55f0055338061007757604051631e4fbdf760e01b81525f600482015260240160405180910390fd5b610080816100b2565b50600180546001600160a01b039384166001600160a01b0319918216179091556002805492909316911617905561014d565b5f80546001600160a01b038381166001600160a01b0319831681178455604051919092169283917f8be0079c531659141344cd1fd0a4f28419497f9722a3daafe3b4186f6b6457e09190a35050565b80516001600160a01b0381168114610117575f80fd5b919050565b5f806040838503121561012d575f80fd5b61013683610101565b915061014460208401610101565b90509250929050565b61112c8061015a5f395ff3fe608060405234801561000f575f80fd5b50600436106100f0575f3560e01c80637cf6384711610093578063d7c436d311610063578063d7c436d314610208578063eb197bee1461021b578063f007e9d514610225578063f2fde38b14610238575f80fd5b80637cf63847146101b357806380a3301b146101d25780638da5cb5b146101e5578063c3dfdae6146101f5575f80fd5b806340bd2e23116100ce57806340bd2e23146101665780634bf0c1fd146101795780635fec8c8c1461018c578063715018a6146101ab575f80fd5b806306ac7aed146100f45780631f45e11f1461012657806337f768381461013b575b5f80fd5b610113610102366004610cbc565b60046020525f908152604090205481565b6040519081526020015b60405180910390f35b610139610134366004610d26565b61024b565b005b60015461014e906001600160a01b031681565b6040516001600160a01b03909116815260200161011d565b610139610174366004610d8d565b6103e3565b610113610187366004610cbc565b6105d3565b61011361019a366004610d8d565b60056020525f908152604090205481565b610139610690565b6101136101c1366004610d8d565b60036020525f908152604090205481565b6101136101e0366004610d8d565b6106a3565b5f546001600160a01b031661014e565b60025461014e906001600160a01b031681565b610139610216366004610da4565b610804565b6101136201518081565b610139610233366004610de3565b610af7565b610139610246366004610cbc565b610ba9565b8281146102975760405162461bcd60e51b8152602060048201526015602482015274082e4e4c2f240d8cadccee8d040dad2e6dac2e8c6d605b1b60448201526064015b60405180910390fd5b82158015906102a7575060648311155b6102e85760405162461bcd60e51b8152602060048201526012602482015271496e76616c69642062617463682073697a6560701b604482015260640161028e565b5f5b8381101561039f575f83838381811061030557610305610e03565b9050602002013511156103975782828281811061032457610324610e03565b9050602002013560035f87878581811061034057610340610e03565b9050602002013581526020019081526020015f205f8282546103629190610e2b565b9091555042905060055f87878581811061037e5761037e610e03565b9050602002013581526020019081526020015f20819055505b6001016102ea565b507f97bb4e35fdf04af0222059338d39fbc34c217a08ffca26c9bd18d5030e6e537b848484846040516103d59493929190610e74565b60405180910390a150505050565b6103eb610be3565b6001546040516331a9108f60e11b81526004810183905233916001600160a01b031690636352211e90602401602060405180830381865afa158015610432573d5f803e3d5ffd5b505050506040513d601f19601f820116820180604052508101906104569190610eaa565b6001600160a01b0316146104985760405162461bcd60e51b81526020600482015260096024820152682737ba1037bbb732b960b91b604482015260640161028e565b5f6104a2826106a3565b90505f81116104e75760405162461bcd60e51b81526020600482015260116024820152704e6f207969656c6420746f20636c61696d60781b604482015260640161028e565b5f8281526003602090815260408083208390556005825280832042905533835260049091528120805483929061051e908490610e2b565b90915550506002546040516340c10f1960e01b8152336004820152602481018390526001600160a01b03909116906340c10f19906044015f604051808303815f87803b15801561056c575f80fd5b505af115801561057e573d5f803e3d5ffd5b50506040518381523392508491507f1448cb68839238fd008abe5bad73d996f9849e020313466fa9f3476d98006df29060200160405180910390a3506105d060015f805160206110d783398151915255565b50565b60015460405163cb64489760e01b81526001600160a01b0383811660048301525f92839291169063cb644897906024015f60405180830381865afa15801561061d573d5f803e3d5ffd5b505050506040513d5f823e601f3d908101601f191682016040526106449190810190610f34565b90505f805b82518110156106885761067483828151811061066757610667610e03565b60200260200101516106a3565b61067e9083610e2b565b9150600101610649565b509392505050565b610698610bfe565b6106a15f610c2a565b565b6001546040516332665ffb60e01b8152600481018390525f9182916001600160a01b03909116906332665ffb9060240161010060405180830381865afa1580156106ef573d5f803e3d5ffd5b505050506040513d601f19601f820116820180604052508101906107139190610fe4565b905080602001515f148061072957506040810151155b1561073657505f92915050565b5f8381526005602052604081205490819003610753575060c08101515b5f61075e824261106a565b90506301e1338081111561077357506301e133805b62015180811015610793575050505f918252506003602052604090205490565b5f6237b1d0846040015185602001516107ac919061107d565b6107b69190611094565b90505f6107c66201518084611094565b905061016d8111156107d7575061016d5b6107e1818361107d565b5f888152600360205260409020546107f99190610e2b565b979650505050505050565b61080c610be3565b801580159061081c575060328111155b61085d5760405162461bcd60e51b8152602060048201526012602482015271496e76616c69642062617463682073697a6560701b604482015260640161028e565b5f805b828110156109d15760015433906001600160a01b0316636352211e86868581811061088d5761088d610e03565b905060200201356040518263ffffffff1660e01b81526004016108b291815260200190565b602060405180830381865afa1580156108cd573d5f803e3d5ffd5b505050506040513d601f19601f820116820180604052508101906108f19190610eaa565b6001600160a01b0316146109335760405162461bcd60e51b81526020600482015260096024820152682737ba1037bbb732b960b91b604482015260640161028e565b5f61095585858481811061094957610949610e03565b905060200201356106a3565b905080156109c8575f60035f87878681811061097357610973610e03565b9050602002013581526020019081526020015f20819055504260055f8787868181106109a1576109a1610e03565b9050602002013581526020019081526020015f208190555080836109c59190610e2b565b92505b50600101610860565b505f8111610a155760405162461bcd60e51b81526020600482015260116024820152704e6f207969656c6420746f20636c61696d60781b604482015260640161028e565b335f9081526004602052604081208054839290610a33908490610e2b565b90915550506002546040516340c10f1960e01b8152336004820152602481018390526001600160a01b03909116906340c10f19906044015f604051808303815f87803b158015610a81575f80fd5b505af1158015610a93573d5f803e3d5ffd5b50505050336001600160a01b03167f342420ff203c68b5830392178aa75b5ba464e922f1148dc30c1b6107f69b4980848484604051610ad4939291906110b3565b60405180910390a250610af360015f805160206110d783398151915255565b5050565b5f8111610b375760405162461bcd60e51b815260206004820152600e60248201526d125b9d985b1a5908185b5bdd5b9d60921b604482015260640161028e565b5f8281526003602052604081208054839290610b54908490610e2b565b90915550505f82815260056020526040908190204290555182907ffe4996cd48c364c468cee70dd6b9061874ff01b05c5ea49311cbcabd9b9cb61590610b9d9084815260200190565b60405180910390a25050565b610bb1610bfe565b6001600160a01b038116610bda57604051631e4fbdf760e01b81525f600482015260240161028e565b6105d081610c2a565b610beb610c79565b60025f805160206110d783398151915255565b5f546001600160a01b031633146106a15760405163118cdaa760e01b815233600482015260240161028e565b5f80546001600160a01b038381166001600160a01b0319831681178455604051919092169283917f8be0079c531659141344cd1fd0a4f28419497f9722a3daafe3b4186f6b6457e09190a35050565b5f805160206110d7833981519152546002036106a157604051633ee5aeb560e01b815260040160405180910390fd5b6001600160a01b03811681146105d0575f80fd5b5f60208284031215610ccc575f80fd5b8135610cd781610ca8565b9392505050565b5f8083601f840112610cee575f80fd5b50813567ffffffffffffffff811115610d05575f80fd5b6020830191508360208260051b8501011115610d1f575f80fd5b9250929050565b5f805f8060408587031215610d39575f80fd5b843567ffffffffffffffff80821115610d50575f80fd5b610d5c88838901610cde565b90965094506020870135915080821115610d74575f80fd5b50610d8187828801610cde565b95989497509550505050565b5f60208284031215610d9d575f80fd5b5035919050565b5f8060208385031215610db5575f80fd5b823567ffffffffffffffff811115610dcb575f80fd5b610dd785828601610cde565b90969095509350505050565b5f8060408385031215610df4575f80fd5b50508035926020909101359150565b634e487b7160e01b5f52603260045260245ffd5b634e487b7160e01b5f52601160045260245ffd5b80820180821115610e3e57610e3e610e17565b92915050565b8183525f6001600160fb1b03831115610e5b575f80fd5b8260051b80836020870137939093016020019392505050565b604081525f610e87604083018688610e44565b82810360208401526107f9818587610e44565b8051610ea581610ca8565b919050565b5f60208284031215610eba575f80fd5b8151610cd781610ca8565b634e487b7160e01b5f52604160045260245ffd5b604051610100810167ffffffffffffffff81118282101715610efd57610efd610ec5565b60405290565b604051601f8201601f1916810167ffffffffffffffff81118282101715610f2c57610f2c610ec5565b604052919050565b5f6020808385031215610f45575f80fd5b825167ffffffffffffffff80821115610f5c575f80fd5b818501915085601f830112610f6f575f80fd5b815181811115610f8157610f81610ec5565b8060051b9150610f92848301610f03565b8181529183018401918481019088841115610fab575f80fd5b938501935b83851015610fc957845182529385019390850190610fb0565b98975050505050505050565b80518015158114610ea5575f80fd5b5f6101008284031215610ff5575f80fd5b610ffd610ed9565b82516004811061100b575f80fd5b80825250602083015160208201526040830151604082015261102f60608401610e9a565b60608201526080830151608082015260a083015160a082015260c083015160c082015261105e60e08401610fd5565b60e08201529392505050565b81810381811115610e3e57610e3e610e17565b8082028115828204841417610e3e57610e3e610e17565b5f826110ae57634e487b7160e01b5f52601260045260245ffd5b500490565b604081525f6110c6604083018587610e44565b905082602083015294935050505056fe9b779b17422d0df92223018b32b4d1fa46e071723d6817e2486d003becc55f00a264697066735822122095eb068a43097a361b7fd785af239c727838fd38be5829758ac5291d214a08c164736f6c63430008180033","linkReferences":{}},"methodIdentifiers":{"YIELD_UPDATE_INTERVAL()":"eb197bee","batchClaimYield(uint256[])":"d7c436d3","batchDistributeYield(uint256[],uint256[])":"1f45e11f","calculateYield(uint256)":"80a3301b","claimYield(uint256)":"40bd2e23","distributeYield(uint256,uint256)":"f007e9d5","gameToken()":"c3dfdae6","getTotalPendingYield(address)":"4bf0c1fd","lastYieldUpdate(uint256)":"5fec8c8c","owner()":"8da5cb5b","pendingYield(uint256)":"7cf63847","propertyNFT()":"37f76838","renounceOwnership()":"715018a6","totalYieldClaimed(address)":"06ac7aed","transferOwnership(address)":"f2fde38b"},"id":55}